:020000040000FA
:020000000528D1
:040002000034003492
:06000A008316850186014A
:1000100083128501860138304F200C304F2001308B
:100020004F2006304F20AD208C0140304F200C086F
:10003000582046208C0A08300C02031C17288C011B
:1000400080304F200C08602046208C0A0E300C06B1
:10005000031D2228C0304F200C08602046208C0A47
:100060001D300C06031D2C28C32001304F200C0826
:10007000602046208C0A30300C06031D3728C7202C
:1000800003308D00C32001304F201F280514860047
:100090000515B120B12098200511B12008000510E8
:1000A00086000515B120B12098200511B120080067
:1000B000820700340A340A3400341F340E3400340A
:1000C00082074D346934633472346F34703472345F
:1000D0006F3463346534733473346F3472344D3435
:1000E0006934633472346F3463346F346E3474340F
:1000F00072346F346C346C34653472344C344F3435
:10010000503445345A342C3452344F3444345234FD
:1001100049344734553445345A3400340000000023
:10012000000000000000000008000000A430A1282A
:1001300000004030A1281F30A12800000E30A12867
:1001400005308E008E0BA2280800C830B428643019
:10015000B4283230B4281430B4280A30B42805301A
:10016000B4280230B42801308F00F9308E0000002E
:100170008E0BB7288F0BB5280800C830C82864300C
:10018000C8283230C8281430C8280A30C82805309A
:10019000900064308F00F9308E0000008E0BCD2867
:0A01A0008F0BCB28900BC928080034
:02400E00F13F80
:00000001FF
