:020000040000FA
:020000000528D1
:040002000034003492
:06000A00831685010130A0
:100010008600831285018601061C0C280F2806180D
:100020000F281228061812280130B4008500861BFC
:10003000BB20A0200230B4008500861BBB20A0207E
:100040000430B4008500861BBB20A0200830B4001B
:100050008500861BBB20A0201030B4008500861BC5
:10006000BB20A02085010130B4008600861BCB2078
:10007000A0200230B4008600861BCB20A0200430D4
:10008000B4008600861BCB20A0200830B400860078
:10009000861BCB20A0201030B4008600861BCB200E
:1000A000A0202030B4008600861BCB20A02040304A
:1000B0008600861BCB20A0202030B4008600861B43
:1000C000CB20A0201030B4008600861BCB20A020BF
:1000D0000830B4008600861BCB20A0200430B4007A
:1000E0008600861BCB20A0200230B4008600861B31
:1000F000CB20A0200130B4008600861BCB20A0209E
:1001000086011030B4008500861BBB20A02008307B
:10011000B4008500861BBB20A0200430B4008500FD
:10012000861BBB20A0200230B4008500861BBB20AC
:10013000A0200130B4008500861BBB20A02012281F
:1001400003308E0012308D0081308C008C0BA6287D
:100150008D0BA6288E0BA62808000B308E0065306C
:100160008D00FA308C0000008C0BB3288D0BB12869
:100170008E0BAF28080034088500AD208501AD2026
:1001800034088500AD208501AD2034088500AD2000
:100190008501AD20080034088600AD208601AD2021
:1001A00034088600AD208601AD2034088600AD20DD
:0601B0008601AD200800ED
:02400E00F13F80
:00000001FF
