:020000040000FA
:020000000528D1
:040002000034003492
:020008006B2863
:06000A00831601308500A1
:10001000013086000117831290308B008501860124
:100020006D227122752279227D2281224B22882223
:100030007D22792275228F227D22792275229622B5
:100040007D22792275228F227D22792275224B22F0
:100050008F229D22A122A522A9229D22A122A52292
:1000600081229D22A122A522A9229D22A122A52290
:10007000A922792275227122812279227522712288
:10008000B022792275227122812279227522712271
:100090008122A122A5226D227D22A122A5226D22EC
:1000A000BB22A122A5226D227D22A122A5226D22A2
:1000B0004B2288227D22792275228F227D2279226D
:1000C000752296227D22792275228F227D22792225
:1000D00075224B2210289000030E91005D223223DE
:1000E0002B238123432232232B23812343223223B8
:1000F0002B2381234322F9224522F2224522812308
:1001000045222423452281234522E4224522E02260
:100110004122DC224522E4224522E4224522E42237
:10012000E4224122322345222B23452281234322EC
:10013000322345222B234522812343223223452289
:100140002B23452281234322F9224522F2224522F4
:100150008123452224234522F92245228123452259
:10016000E422E422412281234522E4224522DC22AA
:1001700045224122DC224522452232234522E42227
:1001800045222B23452281234522242345228123F6
:100190004522E022DC224522E0224522322345226C
:1001A000E42245222B234522812345222423452274
:1001B000F2224522F922F9224122E0223223E022D2
:1001C000DC22DC224122110E8300900E100E8B10D7
:1001D000090086142D2230223322382238222B2285
:1001E0002B2286102D2230223322382238222B2235
:1001F0002B228C0BE928080086142D22302238226D
:1002000038222B222B2286102D2230223322382214
:1002100038222B222B228C0BFC28080086142D223E
:10022000332238222B222B222B2286102D223322FE
:1002300038222B222B222B228C0B0E29080086140D
:10024000302233222B222B222B22861030223322E3
:100250002B222B222B228C0B1F29080086143022E4
:1002600033228610302233228C0B2E29080086146C
:100270003022302235223822861030223022352298
:1002800038228C0B37290800861430223822262287
:100290002B2286103022382226222B228C0B442936
:1002A000080086143022302238222B228610302279
:1002B000302238222B228C0B512908008614302240
:1002C0003322352238222B22861030223322352247
:1002D00038222B228C0B5E29080086142D22352211
:1002E0002B222B222B2286102D2235222B222B2251
:1002F0002B228C0B6D2908008614302235223822DF
:100300002B222B2286103022352238222B222B2220
:100310008C0B7C29080086143022352226222B22C1
:1003200086103022352226222B228C0B8B290800A6
:1003300086142D2230222B222B222B2286102D22B6
:1003400030222B222B222B228C0B9829080086147A
:100350003022332235222B228610302233223522BE
:100360002B228C0BA7290800861433223522382231
:100370002C222C2286103322352238222C222C22A9
:100380008C0BB4290800861430223022302230220F
:10039000861030223022302230228C0BD0290800E7
:1003A0008614302230228610302230228C0BD02945
:1003B0000800861430223322352238222B22861060
:1003C00030223322352238222B228C0BD9290800E7
:1003D0008614302233228610302233228C0BD92906
:1003E0000800861430223022352238222B22861033
:1003F00030223022352238222B228C0BF1290800A2
:1004000086143022382226222B222C2286103022DB
:10041000382226222B222C228C0B002A080086143C
:10042000302230223522382238222C222C222C2233
:100430002C228610302230223522382238222C22DB
:100440002C222C222C228C0B0F2A080000000000EA
:10045000000000000000000008000000A430392A5D
:1004600000004030392A1F30392A00000E30392A66
:1004700005308D008D0B3A2A0800C8304C2A6430B4
:100480004C2A32304C2A14304C2A0A304C2A05307F
:100490004C2A02304C2A01308E00F9308D000000C9
:1004A0008D0B4F2A8E0B4D2A0800C830602A64300D
:1004B000602A3230602A1430602A0A30602A0530FF
:1004C0008F0064308E00F9308D0000008D0B652A9E
:1004D0008E0B632A8F0B612A080071308C00E92093
:1004E00008007F308C00FC20080097308C000E2123
:1004F0000800CD308C0037210800E3308C005121FA
:100500000800FF308C005E2103308C005E21080063
:10051000FF308C007C2187308C007C210800FF306C
:100520008C001F2131308C001F210800FF308C000F
:100530002E2142308C002E210800CA308C00F1217F
:100540000800AB308C006D21080087308C009821AA
:100550000800FF308C00A72110308C00A721080074
:10056000FF308C00D9210A308C00D9210800783066
:100570008C00C3210800F1308C00D0210800FF302E
:100580008C0044217F308C0044210800A1308C0075
:10059000E8210800FF308C008B216A308C008B2111
:1005A0000800FF308C00002297308C0000220800E9
:1005B000BF308C000F220800E3308C00E9200800D7
:1005C000FF308C00FC200800FF308C000E21303002
:1005D0008C000E210800D3308C003721C8308C00ED
:1005E00037210800FF308C005121C8308C00512188
:1005F0000800FA308C005E21FA308C005E21113048
:100600008C005E210800FF308C007C21FF308C00C4
:100610007C21FF308C007C210F308C007C21080075
:10062000FF308C001F21FF308C001F2162308C00B6
:100630001F210800FF308C002E21FF308C002E215E
:1006400084308C002E210800FF308C00F121963080
:100650008C00F1210800FF308C006D2157308C0098
:100660006D210800FF308C0098210F308C009821FC
:100670000800FF308C00A721FF308C00A72120301C
:100680008C00A7210800FF308C00D921FF308C009E
:10069000D92115308C00D9210800F1308C00C321FC
:1006A0000800FF308C00D021E3308C00D0210800FE
:1006B000FF308C004421FF308C004421FE308C0040
:1006C00044210800FF308C00E82143308C00E821F1
:1006D0004B220800FF308C008B21FF308C008B21D7
:1006E000D4308C008B210800FF308C000022FF30BA
:1006F0008C000022FF308C00002230308C00002261
:100700000800FF308C000F227F308C000F22080081
:02400E00F13F80
:00000001FF
